:020000040800F2
:10000000FF3F0020BD2D0008052E0008052E00082A
:10001000052E0008052E0008052E0008000000002F
:10002000000000000000000000000000052E000895
:10003000052E000800000000052E0008D50300086A
:10004000052E0008052E0008052E0008052E0008C4
:10005000052E0008052E0008052E0008052E0008B4
:10006000052E0008052E0008052E0008052E0008A4
:10007000052E0008052E0008052E0008052E000894
:10008000052E0008052E0008052E0008052E000884
:10009000E50300080000000000000000052E000835
:1000A0000000000000000000000000000000000050
:1000B000052E0008052E000800000000052E00088F
:1000C000052E00080000000000000000052E0008BA
:1000D00000000000052E0008052E000800000000AA
:1000E000052E0008052E0008052E0008000000005F
:1000F0000000000000000000000000000000000000
:0C01000000000000000000005FF808F1A3
:10010C0010B5054C237833B9044B13B10448AFF345
:10011C0000800123237010BD940900200000000012
:10012C0044370008084B10B51BB108480849AFF319
:10013C0000800848036803B910BD074B002BFBD0A7
:10014C00BDE81040184700BF00000000443700080D
:10015C00980900209409002000000000844641EA20
:10016C00000313F0030349D1403A23D30B68036017
:10017C004B6843608B688360CB68C3600B69036119
:10018C004B6943618B698361CB69C3610B6A036201
:10019C004B6A43628B6A8362CB6AC3620B6B0363E9
:1001AC004B6B43638B6B8363CB6BC36340304031CE
:1001BC00403ADBD230320BD30B6803604B684360A0
:1001CC008B688360CB68C36010301031103AF3D267
:1001DC000C3205D351F8043B40F8043B043AF9D2F5
:1001EC00043208D0D2071CBF11F8013B00F8013BC8
:1001FC0001D30B8803806046704700BF082A13D3D5
:10020C008B07B1D010F00303AED0C3F10403D21AA4
:10021C00DB071CBF11F8013B00F8013BA4D331F8FC
:10022C00023B20F8023B9FE7043AD9D3013A11F87C
:10023C00013B00F8013BF9D20B7803704B7843700B
:10024C008B7883706046704708B50A4B1A680AB9F8
:10025C00094A1A6018686B460144994206D902F0A3
:10026C00F3FD0C2303604FF0FF3008BD014B196008
:10027C0008BD00BFB0090020F016002070B54FF487
:10028C00803394B001240025022612930AA84FF45F
:10029C00002313930A940B940C95119601F010FC07
:1002AC000523059321464FF4806305A80893069611
:1002BC000795099501F0E2FF1023019301A84FF473
:1002CC008003049302F03EF9044B9A6922439A612D
:1002DC009B6923400093009B14B070BD001002403A
:1002EC0000B589B000F09EFEFFF7C8FF274B2848E9
:1002FC009A6904A942F020029A619A6902F02002DC
:10030C000192019A9A6942F008029A619A6902F084
:10031C0008020292029A9A6942F004029A619B695D
:10032C0003F004030393039B4FF4704304930123E2
:10033C0005930223079300F00DFF00F053F8154CC2
:10034C000121204600F08CF801280546F7D10C213C
:10035C00114800F0B1F82946204600F0ADF80F48DE
:10036C00022100F0A9F82378312B05D108484FF46D
:10037C008051002200F0A8FF2378322BDFD10448F3
:10038C004FF48051012200F09FFFD8E7001002408B
:10039C00000C0140180E00206E3700087B37000857
:1003AC0008B5032000F06CFE00210A464FF0FF3028
:1003BC0000F078FE034A536823F0E06343F0806357
:1003CC00536008BD0000014008B500F03DFEBDE8DB
:1003DC00084000F0BABE0000014801F09DB800BF13
:1003EC00CC10002010B5094C00222046084900F022
:1003FC00DDF92046074900F0EEF92046064900F0E9
:10040C00BFFD2046BDE8104000F0ECB9980E00206E
:10041C001000002088000020000000200020704701
:10042C0000207047054B0A680020C3F80422012203
:10043C00C3F8000283F80822704700BFB4090020FB
:10044C0008B50449044800F0AAFD044B01221A70B7
:10045C00002008BDB4090020980E0020C010002018
:10046C0038B5134D95F9084204B3D5F80022D5F8E8
:10047C0004329B1A9942A8BF194600290C4613DD79
:10048C00A9182246FFF76AFED5F80032D5F80422E7
:10049C0023449342C5F8003208DB0023054885F855
:1004AC00083200F099FD01E0002038BD204638BD2F
:1004BC00B4090020980E0020B1F5007FF8B507466E
:1004CC000D4613DD00242E1BB6F5007FA8BF4FF49C
:1004DC00007638193146FFF7EFFFB04201D02044C7
:1004EC00F8BD0134AC42EED12846F8BD0B4BD3F825
:1004FC001862D6F81442002CFBD108483946AAB22F
:10050C0000F045FD054800F050FD20B9D6F8143236
:10051C00002BFBD1E8E72046F8BD00BF980E002069
:10052C0007B50D4B02689A4212D103F5DA33DA693A
:10053C00002142F40002DA61DB69142003F40003A9
:10054C0001930A46019B00F0ADFD142000F0DAFD8A
:10055C0003B05DF804FB00BF005C00400146D0F81E
:10056C001C0401F57B7100F054B900EB4113D3F876
:10057C001C22D0F81C0400F079B900EB4113DA6BA3
:10058C00D0F81C0400F0A2B9D0F81C0400F013BA87
:10059C0010B504460121D0F81C0400F0FAF9D4F887
:1005AC001C04BDE8104000F0D5B9000010B504469D
:1005BC00D0F81C0400F0F0F9A36923B1024A1369C6
:1005CC0043F00603136110BD00ED00E0D0F81C04ED
:1005DC0000F0EBB938B505461C491D48082202232A
:1005EC00032480E81E00C0F81C540024C5F8200227
:1005FC0044618461C461046200F06AFE21462246B3
:10060C00D5F82002182301F043FA2246D5F820022F
:10061C008021582301F03CFA2246D5F82002812192
:10062C00C02301F035FA2246D5F8200201214FF4FF
:10063C00887301F02DFAD5F82002822122464FF45E
:10064C00807301F025FA204638BD00BF005C0040E5
:10065C00CC10002008B5D0F8200200F0A1FE00203C
:10066C0008BD10B51446D0F820021A46234600F0F7
:10067C00C2FE002010BD08B5D0F8200200F0DFFE4D
:10068C00002008BD08B5D0F8200201F0B3F9002015
:10069C0008BD08B5D0F8200201F0D6F9002008BD3D
:1006AC000A06D0F8203245BF01F07F0103EB41135D
:1006BC0003EB411393F82A0058BF93F80A027047D2
:1006CC0008B5D0F8200200F082FE002008BD08B565
:1006DC00D0F8200200F000FF002008BD08B5D0F8CB
:1006EC00200200F0CEFE002008BD08B5D0F8200294
:1006FC0000F0EBFE08BD000000487047C00B002066
:10070C0002F0D8BB7047000012230B8000487047E2
:10071C003000002004230B80004870472C00002080
:10072C0010B5044C0A460448214600F0ECFA204669
:10073C0010BD00BFEC1400207E37000810B5044C2F
:10074C000A460448214600F0DEFA204610BD00BFE0
:10075C00EC1400209137000810B5044C0A460448EC
:10076C00214600F0D0FA204610BD00BFEC1400204A
:10077C00A737000810B5044C0A460448214600F07F
:10078C00C2FA204610BD00BFEC140020B43700089C
:10079C0010B5044C0A460448214600F0B4FA204631
:1007AC0010BD00BFEC140020BF37000808B580B1A5
:1007BC00D0F8143213B10023C0F8143209B1C0F8C8
:1007CC001012012380F8FC310270FFF703FF0020A8
:1007DC0008BD022008BD19B1C0F8141200207047E2
:1007EC000220704708B5FFF735FF002008BD08B59B
:1007FC00D0F814320BB9022008BD1B6898470028AA
:10080C00F9D108BD08B5D0F814325B6898470020C0
:10081C0008BD38B5044600F50275284600F0D7F837
:10082C000123C4F8F43194F80812B4F80E32C4F869
:10083C00F83101F01F03012B0CD006D3022B0ED183
:10084C002046294600F006FA0EE02046294600F024
:10085C00DDF809E02046294600F0E4F904E02046E2
:10086C0001F08001FFF70EFF002038BD10B50446E3
:10087C0009BBD0F8F431032B26D1D0F80C11D0F8E9
:10088C00103199420AD9C91A8B4228BF0B46C0F8BD
:10089C000C1111469AB200F07AFA15E0D0F8143225
:1008AC001B6923B190F8FC21032A00D198472046FC
:1008BC0000F076FA08E0D0F814329B6923B190F876
:1008CC00FC21032A00D19847002010BD38B50446FE
:1008DC00A9BBD0F8F431022B29D1C569036A9D421A
:1008EC0006D9EB1A1146C3619AB200F037FA1EE032
:1008FC008269B2FBF3F503FB15255DB99A4209D366
:10090C00D0F8F8319A4205D22A4600F027FAC4F8FA
:10091C00F8510CE0D4F81432DB682BB194F8FC21BC
:10092C00032A01D120469847204600F044FA94F857
:10093C000032012B0CD1002384F8003208E0D0F8EF
:10094C0014325B6923B190F8FC21032A00D198473B
:10095C00002038BD38B5044600210A464025402306
:10096C00FFF77FFE2B46C4F8105120468021002251
:10097C00FFF777FE012384F8FC31D4F81832256296
:10098C002BB1D4F8143220465B68217998470020AB
:10099C0038BD01740020704790F8FC3180F8FD31AF
:1009AC00042380F8FC310020704790F8FD3180F86A
:1009BC00FC310020704708B590F8FC21032A04D1C3
:1009CC00D0F81432DB6903B19847002008BD0B78CE
:1009DC0003704B784370CA788B7803EB0223438007
:1009EC004A790B7903EB02238380CA798B7903EB69
:1009FC000223C380704710B504468021FFF742FEE6
:100A0C002046BDE810400021FFF73CBE73B54B7883
:100A1C0004460D46092B00F2FC80DFE813F0CE00F3
:100A2C00E500FA00E100FA0077000A00FA00BD00C8
:100A3C0093004B881A0A013A062A00F2EA80DFE892
:100A4C0012F007000B001800E800E8003D00490018
:100A5C00D0F810321B682CE0027CD0F814320AB9A2
:100A6C009B6A00E0DB6A0DF1060098470223014601
:100A7C003CE0DBB2052B00F2CC80DFE803F003078F
:100A8C000B0F1317D0F810325B6812E0D0F810324D
:100A9C009B680EE0D0F81032DB680AE0D0F8103218
:100AAC001B6906E0D0F810325B6902E0D0F8103216
:100ABC009B69207C0DF10601984709E0037C002B13
:100ACC0040F0A780D0F814320DF106005B6B98470C
:100ADC0001460CE0037C002B40F09B80D0F81432D4
:100AEC000DF106001B6B9847014607234B70BDF8B0
:100AFC000630002B00F09180EA88002A00F08D80EF
:100B0C009A4228BF1A46ADF8062054E08B88002B79
:100B1C007FD1CB88002B7CD190F8FC318E78032BC5
:100B2C0006F07F0675D080F8FE613146FFF7C8FDF0
:100B3C00204600F035F90EB1022300E0012384F8C1
:100B4C00FC316AE08978364E0129317061D890F811
:100B5C00FC31022B02D0032B08D05AE0002954D0D0
:100B6C0001210323416080F8FC310FE031B90223ED
:100B7C0080F8FC314160FFF745FE46E041680129F1
:100B8C0043D0C9B2FFF73EFE317861602046FFF7D3
:100B9C002EFE022839D13CE0CA88012A39D190F8BE
:100BAC00FC31022B03D0032B33D1011D15E0014680
:100BBC00002341F8083F20460FE090F8FC31023B3F
:100BCC00012B26D80123C360D0F804320BB10323C8
:100BDC00C360204604F10C01022200F0B1F81CE0C5
:100BEC004B88012B19D108E090F8FC31023B012B0A
:100BFC000FD84B88012B10D10023C4F80432D4F841
:100C0C00143220469B6829469847204600F0C8F8C5
:100C1C0003E020462946FFF7EEFE002002B070BD2F
:100C2C00DC0D002038B590F8FC310446032B0D4642
:100C3C000CD10B79012B09D8D0F814329B6898474A
:100C4C00EB882BB9204600F0ABF801E0FFF7D3FEA0
:100C5C00002038BD70B54E788A88012E04460D46AA
:100C6C00D3B210D026D3032E4BD190F8FC21022AFC
:100C7C0027D0032A43D14A8892B95E0610D0194670
:100C8C00FFF700FD0CE090F8FC21022A19D0032A92
:100C9C0035D14A88AABB590608D01946FFF7F9FC8A
:100CAC00D4F8143220469B6829469847204600F019
:100CBC0077F826E090F8FC51022D02D0032D06D0D7
:100CCC001DE05A061DD01946FFF7DCFC19E003F0B5
:100CDC007F0512F0800F00EB0515194614BF143573
:100CEC0005F58275FFF7DCFC10B101232B6000E0E9
:100CFC00286020462946022200F022F801E0FFF786
:100D0C007AFE002070BD30B5C8B10446231A14F821
:100D1C00015BDBB2002DF9D15B00023313800B7049
:100D2C0003234B700138022310F8014F3CB15A1CBD
:100D3C00CC54D2B202330024DBB28C54F4E730BD75
:100D4C0038B513460D460222C0F8F4218361C36105
:100D5C0000212A46FFF7BBFC002038BD10B50C461D
:100D6C00134600212246FFF7B2FC002010BD38B517
:100D7C0013460D460322C0F8F421C0F80831C0F820
:100D8C000C3100212A46FFF7A9FC002038BD10B514
:100D9C000C46134600212246FFF7A0FC002010BD94
:100DAC0008B500210423C0F8F4310A460B46FFF7BE
:100DBC008EFC002008BD08B500210523C0F8F431D5
:100DCC000A460B46FFF78AFC002008BDD0F8183203
:100DDC001BB10020C3F81402704702207047D0F8F2
:100DEC001C3210B5D0F818425BB194F80002FF2801
:100DFC0007D09B68214694F801229847FF2384F87A
:100E0C000032002010BD00004323038000487047CF
:100E1C004400002043230380004870471001002049
:100E2C004323038000487047CC0000200A23038032
:100E3C0000487047C000002038B50546D0F818426D
:100E4C00FFF753FCD5F81832C4F80C024BB1D5F8A7
:100E5C001C32D4F80402DB6804F5037198470020B7
:100E6C0038BD022038BDF8B50C460978064601F0AD
:100E7C006003202BD0F8185220D1E2886378BAB1E5
:100E8C0009060BD5D0F81C1218468F682946B847AE
:100E9C0030462946E288FFF753FF0FE085F8003211
:100EAC00E388294685F80132E288FFF760FF05E008
:100EBC00D0F81C1218468C681146A0470020F8BDCB
:100ECC0010B504468121FFF7D6FB01212046FFF720
:100EDC00D2FB20468221FFF7CEFBD4F8183253B157
:100EEC00D4F81C325B689847D4F81802FFF708FC5A
:100EFC000023C4F81832002010BDF8B5037C04465A
:100F0C00812102224BB94FF40073FFF7AAFB204654
:100F1C00012102224FF4007306E04023FFF7A1FBEE
:100F2C002046012102224023FFF79BFB8221032252
:100F3C0008232046FFF795FB4FF40770FFF7DCFB07
:100F4C000646C4F81802C8B1D4F81C3200251B6838
:100F5C009847277CC6F814522046C6F8185201212F
:100F6C00D6F804222FB94FF40073FFF7B7FB3846BD
:100F7C00F8BD4023FFF7B2FB2846F8BD0120F8BDB1
:100F8C0019B1C0F81C120020704702207047D0F82D
:100F9C0018320020C3F80812C3F810227047D0F89A
:100FAC0018320020C3F80412704738B5D0F8184234
:100FBC0074B1D4F81452012365B9C4F814328121E8
:100FCC00D4F80822B4F81032FFF781FB284638BD5C
:100FDC00022038BD184638BDD0F8183210B563B1B0
:100FEC00047C0121D3F8042214B94FF4007300E0FF
:100FFC004023FFF773FB002010BD022010BD10B57D
:10100C00044601F01FF94FF47A73B0FBF3F000F0D3
:10101C0085F84FF0FF302146002200F043F8002005
:10102C0010BD0000074A08B51368032043F01003F5
:10103C00136000F025F80020FFF7E1FFFFF7B0F98F
:10104C00002008BD00200240024A136801331360DF
:10105C00704700BFE00D0020014B1868704700BFBF
:10106C00E00D002013B50190FFF7F6FF0446FFF7E3
:10107C00F3FF019B001B9842F9D302B010BD000096
:10108C00074A00F00700D36823F4E0631B041B0C31
:10109C0043F0BF6343F4003343EA0023D36070474B
:1010AC0000ED00E0154B70B5DB68C3F30223C3F110
:1010BC0007051C1D042D28BF0425062C8CBF033BE3
:1010CC000023012404FA03F6AC40013C013E21400C
:1010DC0099403240002842EA01024FEA0212AFBFA7
:1010EC0000F16040064B00F00F00D2B2A5BFD2B2A7
:1010FC0000F561401A5480F8002370BD00ED00E04B
:10110C0014ED00E04109012300F01F00024A834066
:10111C0042F82130704700BF00E100E00138B0F127
:10112C00807F3FBF064B074AF02158603FBF82F8D3
:10113C00231000200722986034BF1A6001207047EA
:10114C0010E000E000ED00E0704708B5FFF7FCFF91
:10115C0008BD00000023F7B51D4601220C68AA400B
:10116C001440944240F0A0804A68122A2BD00ED82A
:10117C00022A25D004D84AB3012A30D1CB682EE0FC
:10118C00032A1BD0112A2AD1CB68043327E0494EFD
:10119C00B2421BD006D8A6F58016B24216D006F580
:1011AC00803608E0444EB24210D006F58036B2428A
:1011BC000CD0A6F58016B24211D107E000230EE048
:1011CC00CB6808330BE0CB680C3308E08B682BB191
:1011DC00012B0CBF04614461082300E00423FF2CA5
:1011EC0097BF0746A5F108060268AE0084BF4268A7
:1011FC00B6004FF00F0E0EFA06FC22EA0C0203FAB0
:10120C0006F688BF071D32433A604F68FA004BD58B
:10121C002A4A05F0030C96694FEA8C0C46F001063D
:10122C009661926925F0030602F0010206F18046F0
:10123C00019206F58036019AB2680EFA0CFE22EA8B
:10124C000E0E1F4A90420AD002F58062904208D0DE
:10125C0002F5806290420CBF0222032202E00022BF
:10126C0000E0012202FA0CF242EA0E02B260154AC8
:10127C0017F4803F166814BF2643A64316605668C1
:10128C0017F4003F14BF2643A6435660966817F424
:10129C00801F14BF2643A6439660D668BF024CBF7E
:1012AC00344326EA0404D4600135102D7FF455AF85
:1012BC0003B0F0BD000021100000311000100240FE
:1012CC00000801400004014002B9090401617047A3
:1012DC00F0B5044687B000285FD090F8E93303F0EE
:1012EC00FF021BB980F8E823FFF71AF925466E4672
:1012FC00032355F8100B84F8E93301F0C3F90FCD33
:10130C000FC62B68271D336097E80E00206801F08C
:10131C00A9F90021206801F0BFF9224621460020DE
:10132C0004F11006012381F828008886013081F829
:10133C0029300F284FF0000381F82B308B63CB63DF
:10134C000B6401F12001EDD182F808329386013350
:10135C0000250F2B82F8095282F80B52C2F8185252
:10136C00C2F81C52C2F8205202F12002ECD1EE4617
:10137C000FCEAEE80F003368CEF8003097E80E00C1
:10138C00206801F08BF9012384F82450206884F83C
:10139C00E93301F03CFC284600E0012007B0F0BD29
:1013AC0090F8E83310B5012B04460ED0012180F8DB
:1013BC00E813FFF7A7F9206801F027FC206801F07B
:1013CC0058F9002084F8E80310BD022010BD90F8F5
:1013DC00E82310B5012A04460BD0012280F8E8233B
:1013EC0084F82410006801F00AFC002084F8E8035B
:1013FC0010BD022010BD38B50446C8B210F0800FE5
:10140C0001F07F0515BF04EB451104EB41112831A8
:10141C0001F50271C0090D704870CB7094F8E83377
:10142C000A61012B09D0012384F8E833206801F00C
:10143C0049F9002084F8E80338BD022038BDCBB24E
:10144C0013F0800F01F07F0215BF00EB421100EB8F
:10145C004111283101F50271DB0910B50A704B708E
:10146C0090F8E8330446012B09D0012380F8E833C7
:10147C00006801F099FA002084F8E80310BD0220FE
:10148C0010BD70B5044601F07F0670012518C5F833
:10149C0020320023C5F81C22C5F8243285F8093205
:1014AC0085F8086294F8E833012B0CD0012300F581
:1014BC000270211884F8E833206801F0C7FB002083
:1014CC0084F8E80370BD022070BD01F07F0100EBD1
:1014DC004110B0F82402704770B5044601F07F0645
:1014EC00700125182B6400236B640123EA6385F8D3
:1014FC00293085F8286094F8E8239A420AD02830DD
:10150C00211884F8E833206801F0A0FB002084F84F
:10151C00E80370BD022070BDF7B50446006801F009
:10152C0078FB020416D4206801F073FB430540F1EC
:10153C00DE8122682046B2F8443023F480631B0419
:10154C001B0CA2F84430FFF723F820460021FFF7CC
:10155C003EFFCCE10023ADF80430ADF80630206836
:10156C00B0F844309BB2ADF804301B04DBD5BDF8A9
:10157C00045015F00F0540F0B780BDF80410038837
:10158C0001F0100189B259BB23F4E14323F070033D
:10159C001B041B0C0380B0F8503094F828209BB22D
:1015AC0003EBC20300EB4300D0F80434E26BC3F34B
:1015BC00090363641344E3632046FEF7DEFF94F8EB
:1015CC002430002BCBD0226C002AC8D194F82430C4
:1015DC00216843F08003A1F84C3084F82420BEE746
:1015EC009BB2ADF80630BDF806301F051FD5B0F81C
:1015FC00503094F808229BB203EBC20300EB430378
:10160C00D3F80C34B4F80C22C3F30903C4F8243215
:10161C0004F57B7101F0BAFB22682046138823F095
:10162C0070031B051B0D1380FEF798FF97E7BDF8A1
:10163C0006301BB2002B92DA038823F070031B05D3
:10164C001B0D0380B0F8503094F808229BB203EBCA
:10165C00C20300EB4303D3F80C34C3F30903C4F8FF
:10166C00243263B1B4F80C22D4F81C1201F08EFBB6
:10167C00D4F81C22D4F824321344C4F81C3220466B
:10168C000021FEF772FF2268D4F81852B2F85010FD
:10169C003E2D89B202F5806001F106010BD9C5F32C
:1016AC004F13EE0604BF03F1FF339BB26FEAC36323
:1016BC006FEA534306E0C5F34F03ED0744BF013314
:1016CC009BB29B029BB240F81130138823F48043E9
:1016DC0023F070031B041B0C83F4405343F40043AE
:1016EC0043F0800313803AE730F825309BB2ADF815
:1016FC000630BDF806301BB2002B76DA30F82530F8
:10170C006F0123F070031B051B0D20F82530E31926
:10171C0093F8122203F5027EAAB9B0F8502093F880
:10172C00081292B202EBC10200EB4202D2F80C6436
:10173C00C6F30906DEB3D3F81C12BEF804203346F8
:10174C0001F024FB33E093F8082230F82210D20089
:10175C0011F4804FB0F8501089B20A4400EB4202E9
:10176C0009D0D2F80464C6F3090686B1D3F81C126A
:10177C00BEF8062008E0D2F80C64C6F3090636B1B0
:10178C00D3F81C12B3F81022334601F0FFFAE31918
:10179C0093F80812226832F8213023F0F0031B056D
:1017AC001B0D43F4004343F0C00322F82130E11930
:1017BC00D1F82432D1F81C223344C1F82432D1F8A8
:1017CC0020323244C1F81C221BB1D1F818028642D7
:1017DC0006D22744204697F80812FEF7C6FE04E00E
:1017EC00204691F80812FFF74CFEBDF806301A0699
:1017FC007FF5B5AE20686E0130F82530A21923F4C0
:10180C00E14323F070031B041B0C20F8253092F8E5
:10181C00323002F128070235B3B9B0F8503092F8E3
:10182C0028109BB203EBC10300EB4303D3F8043441
:10183C0004EB4515C3F309036B60002B39D0D16B56
:10184C00BA8801F0ECF934E092F8283030F8231023
:10185C00DB0011F0400FB0F8501089B20B4400EBD4
:10186C0043030AD0D3F8043404EB4515C3F309033E
:10187C006B6073B1D16BFA8809E0D3F80C3404EBCC
:10188C004515C3F309036B601BB1D16B128E01F0CC
:10189C00C6F9A31993F82810226832F8213023F0E6
:1018AC00F0031B051B0D43F4404343F0800322F867
:1018BC0021302068A119B0F8502091F8283092B24C
:1018CC0002EBC30300EB4303D3F80424C86BC2F34D
:1018DC0009020B6C4A640244CA63204691F8281032
:1018EC0013B9FEF74AFE3AE6FFF7F6FD37E6206835
:1018FC0001F08FF9470448BF2268206841BFB2F855
:10190C00443023F480431B041B0C48BFA2F8443022
:10191C0001F07FF9860448BF2268206841BFB2F805
:10192C00443023F400531B041B0C48BFA2F8443072
:10193C0001F06FF9C50418D522682046B2F8403082
:10194C0023F004031B041B0CA2F840304FF43D435E
:10195C00A2F84030FEF73AFE2268B2F8443023F485
:10196C0080531B041B0CA2F84430206801F051F981
:10197C0000051DD52068B0F8443023F400631B0427
:10198C001B0CA0F84430B0F840309BB243F0080375
:10199C00A0F84030B0F840309BB243F00403A0F8FC
:1019AC00403001F036F9C10402D42046FEF7FEFDAA
:1019BC00206801F02EF982050BD522682046B2F87A
:1019CC00443023F400731B041B0CA2F84430FEF7C4
:1019DC00DBFD206801F01DF9C30541BF2268B2F898
:1019EC00443023F480731B0444BF1B0CA2F8443016
:1019FC0003B0F0BD38B5CBB213F0800F01F07F050A
:101A0C0015BF00EB451100EB4111283101F50271B6
:101A1C000122DB09EDB28A700D704B7090F8E8333F
:101A2C00044693420ED080F8E823006801F074F865
:101A3C0025B9206804F57B7101F0EFF8002084F8DB
:101A4C00E80338BD022038BD38B5CBB213F0800F97
:101A5C0001F07F0215BF00EB421100EB4111283160
:101A6C0001F50271DB0900248C700A704B7090F840
:101A7C00E8330546012B09D0012380F8E8330068D0
:101A8C0001F07BF885F8E843204638BD022038BDCC
:101A9C0011F0800F1BBF01F07F0100EB411000EB38
:101AAC004110283008BF00F5027012B98272838091
:101ABC0004E00122C3801B0C82720381002070475A
:101ACC000368F7B5DC07054604D42B68980700F1CA
:101ADC00D58079E1BA4C636803F00C03042B07D072
:101AEC00636803F00C03082B27D16368D90324D552
:101AFC004FF4003292FAA2F3B3FA83F343F02003CB
:101B0C00C3F34213012B01D1226804E092FAA2F232
:101B1C00B2FA82F2626A4FF4003393FAA3F3B3FA87
:101B2C0083F303F01F03DA40D207CED56B6823F0A2
:101B3C000403012BC9D0012031E3236823F4803343
:101B4C002360236823F480232360FFF785FA06467D
:101B5C004FF4003292FAA2F3B3FA83F343F020036A
:101B6C00C3F34213012B01D1226804E092FAA2F2D2
:101B7C00B2FA82F2626A4FF4003393FAA3F3B3FA27
:101B8C0083F303F01F03DA40D30708D5FFF764FA99
:101B9C0041F28833801B9842DAD90320FFE2226895
:101BAC00874B22F4803222606A68012A07D11A68B6
:101BBC0022F480221A601A6842F4803207E0052A67
:101BCC0002D1804B1A7003E01A6822F480221A604A
:101BDC006B684BB3FFF740FA06464FF4003292FAAB
:101BEC00A2F3B3FA83F343F02003C3F34213012BA4
:101BFC0001D1226804E092FAA2F2B2FA82F2626A8D
:101C0C004FF4003393FAA3F3B3FA83F303F01F03F7
:101C1C00DA40D7073FF559AFFFF71EFA41F2883388
:101C2C00801B9842D9D9B8E7FFF716FA06464FF44D
:101C3C00003292FAA2F3B3FA83F343F02003C3F316
:101C4C004213012B01D1226804E092FAA2F2B2FAFB
:101C5C0082F2626A4FF4003393FAA3F3B3FA83F37C
:101C6C0003F01F03DA40D0077FF52FAFFFF7F4F92D
:101C7C0041F28833801B9842D9D98EE7504C636867
:101C8C0013F00C0F07D0636803F00C03082B23D15F
:101C9C006368D90320D4022292FAA2F3B3FA83F335
:101CAC0043F02003C3F34213012B01D1226804E05B
:101CBC0092FAA2F2B2FA82F2626A022393FAA3F3C4
:101CCC00B3FA83F303F01F03DA40D20738D52B693C
:101CDC00012B7FF430AF33E02A690123002A3ED078
:101CEC0093FAA3F2B2FA82F2D2B2920002F18442D7
:101CFC0002F584021360FFF7AFF90646022292FA4E
:101D0C00A2F3B3FA83F343F02003C3F34213012B82
:101D1C0001D1226804E092FAA2F2B2FA82F2626A6B
:101D2C00022393FAA3F3B3FA83F303F01F03DA400D
:101D3C00D30705D4FFF790F9801B6428DED92CE774
:101D4C002268F82393FAA3F3B3FA83F36969DBB23D
:101D5C00994022F0F80241EA0203236034E093FA3E
:101D6C00A3F3B3FA83F3DBB29B0003F1844303F5D3
:101D7C0084031A60FFF770F90646022292FAA2F366
:101D8C00B3FA83F343F02003C3F34213012B01D1C5
:101D9C00226804E092FAA2F2B2FA82F2626A022398
:101DAC0093FAA3F3B3FA83F303F01F03DA40D707D4
:101DBC000AD5FFF751F9801B6428DED9EDE600BF88
:101DCC0000100240021002402B681C0750D5AA6973
:101DDC00C94C0123C9493AB393FAA3F2B2FA82F27D
:101DEC00D2B241F82230FFF737F90646022393FAB4
:101DFC00A3F2B2FA82F293FAA3F2B2FA82F2626A14
:101E0C0093FAA3F3B3FA83F303F01F0322FA03F359
:101E1C00D80705D4FFF720F9801B6428E6D9BCE667
:101E2C000120FFF71FF923E093FAA3F3B3FA83F32E
:101E3C00DBB241F82320FFF70FF90646022393FA91
:101E4C00A3F2B2FA82F293FAA3F2B2FA82F2626AC3
:101E5C0093FAA3F3B3FA83F303F01F0322FA03F309
:101E6C00D90705D5FFF7F8F8801B6428E6D994E666
:101E7C002B685A0704D4EA69002A40F0CD8039E176
:101E8C009D4C9F4AE36943F08053E361E36903F09F
:101E9C0080530193019B136843F480731360FFF725
:101EAC00DBF80646964B1B68DB0505D4FFF7D4F828
:101EBC00801B6428F6D970E6012393FAA3F3B3FAD6
:101ECC0083F3904EDBB2002246F82320042393FACE
:101EDC00A3F3B3FA83F3DBB246F82320FFF7BCF885
:101EEC000746022393FAA3F2B2FA82F293FAA3F210
:101EFC00B2FA82F242F04002C2F342129A420CBF92
:101F0C00226A626A93FAA3F3B3FA83F303F01F0312
:101F1C0022FA03F313F0010307D0FFF79DF841F207
:101F2C008833C01B9842DCD937E6E96841B90123F4
:101F3C0093FAA3F3B3FA83F3DBB246F8231014E05D
:101F4C0001290AD1042292FAA2F2B2FA82F2D2B296
:101F5C0046F8223091FAA1F30AE0012191FAA1F29C
:101F6C00B2FA82F2D2B246F82230042393FAA3F3E7
:101F7C00B3FA83F3DBB246F82310EB68012B25D1BF
:101F8C00FFF76AF80646022393FAA3F2B2FA82F23A
:101F9C0093FAA3F2B2FA82F242F04002C2F3421276
:101FAC009A420CBF226A626A93FAA3F3B3FA83F3E0
:101FBC0003F01F03DA40D7073FF55DAFFFF74CF88E
:101FCC0041F28833801B9842DDD9E6E5FFF744F8EF
:101FDC000646022393FAA3F2B2FA82F293FAA3F220
:101FEC00B2FA82F242F04002C2F342129A420CBFA1
:101FFC00226A626A93FAA3F3B3FA83F303F01F0322
:10200C00DA40D0077FF537AFFFF726F841F2883377
:10201C00801B9842DDD9C0E5374C636803F00C0394
:10202C00082B3FF488AD022A4FF0807340F0848077
:10203C0093FAA3F3B3FA83F3DBB29B0003F184436B
:10204C0003F5840300221A60FFF706F806464FF0EA
:10205C00007292FAA2F3B3FA83F343F02003C3F3B2
:10206C004213012B50D122684FF0007393FAA3F363
:10207C00B3FA83F303F01F03DA40D1074AD42E6A74
:10208C00B6F5803F01BF616821F40030A9680143B7
:10209C0008BF616063686A6A23F4741332431343A4
:1020AC0063604FF0807393FAA3F3B3FA83F3DBB25C
:1020BC009B0003F1844303F5840301221A60FEF7AD
:1020CC00CBFF05464FF0007292FAA2F3B3FA83F3FA
:1020DC0043F02003C3F34213012B21D122684FF0AC
:1020EC00007393FAA3F3B3FA83F303F01F03DA40FC
:1020FC00D2071BD5002052E000100240800442425F
:10210C00007000400004424292FAA2F2B2FA82F24B
:10211C00626AA9E7FEF7A0FF801B642897D93CE50B
:10212C0092FAA2F2B2FA82F2626AD8E7FEF794FF50
:10213C00401B6428C6D930E593FAA3F3B3FA83F3B2
:10214C00DBB29B0003F1844303F5840300221A6085
:10215C00FEF782FF05464FF0007292FAA2F3B3FA33
:10216C0083F343F02003C3F34213012B01D1226804
:10217C0004E092FAA2F2B2FA82F2626A4FF00073B1
:10218C0093FAA3F3B3FA83F303F01F03DA40D307F4
:10219C00B0D5FEF761FF401B6428DCD9FDE403B029
:1021AC00F0BD00BF224B70B503F110052E4686B072
:1021BC0002AC224618685968083303C2AB42144675
:1021CC00F7D133881B48ADF80430416801F00C039B
:1021DC00042B2AD0082B01D0174827E04FF470139A
:1021EC0093FAA3F3B3FA83F301F47012DBB222FA7D
:1021FC0003F306AA1344CA0313F8103C12D5426821
:10220C004FF4003191FAA1F1B1FA81F1C9B202F4A3
:10221C000032CA4006A90A4412F8140C074AB2FB51
:10222C00F0F000E00648584300E0044806B070BDEA
:10223C005C3700080010024000127A00001BB70047
:10224C0000093D0008B5FFF7ADFF094B5A68F023B4
:10225C0093FAA3F3B3FA83F302F0F002DBB222FA9F
:10226C0003F3044AD35CD840034B186008BD00BF8D
:10227C0000100240CD37000854010020AF4AF8B5D9
:10228C001368044603F0070399420E4640F2A780F8
:10229C00136823F007030B431360136803F0070361
:1022AC008B4201D00120F8BD01688A0741BFA448C8
:1022BC00436823F0F002A36844BF13434360CB0789
:1022CC000BD421684F0740F127819D48436823F4C4
:1022DC00E062E368134343601EE16268984D012A93
:1022EC0015D14FF4003191FAA1F3B3FA83F343F013
:1022FC002003C3F34213012B01D1296804E091FAA6
:10230C00A1F1B1FA81F1696A4FF400332AE0022A93
:10231C0015D14FF0007191FAA1F3B3FA83F343F0A6
:10232C002003C3F34213012B01D1296804E091FA75
:10233C00A1F1B1FA81F1696A4FF0007312E0022148
:10234C0091FAA1F3B3FA83F343F02003C3F34213DE
:10235C00012B01D1296804E091FAA1F1B1FA81F1C4
:10236C00696A022393FAA3F3B3FA83F303F01F030E
:10237C00D940CE0796D56B6823F003031A436A60E5
:10238C00FEF76AFE63680646012B0DD16B6803F0FD
:10239C000C03042B95D0FEF75FFE41F28833801BB3
:1023AC009842F3D90320F8BD022B13D16B6803F0CC
:1023BC000C03082B85D0FEF74FFE41F28833801BAF
:1023CC009842F3D9EEE7FEF747FE41F28833801BC3
:1023DC009842E7D86B6813F00C0FF4D171E70168E1
:1023EC008D0741BF5648436823F0F002A36844BFF1
:1023FC0013434360C8070CD4504A136823F00703F7
:10240C0033431360136803F00703B3427FF44AAFFE
:10241C0057E762684A4D012A15D14FF4003191FA01
:10242C00A1F3B3FA83F343F02003C3F34213012B5C
:10243C0001D1296804E091FAA1F1B1FA81F1696A3C
:10244C004FF400332AE0022A15D14FF0007191FAB3
:10245C00A1F3B3FA83F343F02003C3F34213012B2C
:10246C0001D1296804E091FAA1F1B1FA81F1696A0C
:10247C004FF0007312E0022191FAA1F3B3FA83F347
:10248C0043F02003C3F34213012B01D1296804E06C
:10249C0091FAA1F1B1FA81F1696A022393FAA3F3DB
:1024AC00B3FA83F303F01F03D940C9077FF5FAAEE3
:1024BC006B6823F003031A436A60FEF7CDFD636873
:1024CC000746012B0CD16B6803F00C03042B93D043
:1024DC00FEF7C2FD41F28833C01B9842F3D961E785
:1024EC00022B14D16B6803F00C03082B84D0FEF77D
:1024FC00B3FD41F28833C01B9842F3D952E7FEF783
:10250C00ABFD41F28833C01B98423FF64BAF6B6872
:10251C0013F00C0FF3D16FE70B0742BF084A216988
:10252C0053684FF0000042BF23F4605343EAC103E9
:10253C005360FEF764FD0020F8BD00BF0020024090
:10254C00001002400368F7B50546D8076CD5424C1D
:10255C00424AE36943F08053E361E36903F080533B
:10256C000193019B136843F480731360FEF774FDB1
:10257C0006463A4B1B68D90506D4FEF76DFD801B49
:10258C006428F6D9032065E0226A6B6802F4407275
:10259C0003F440739A42304816D0016A4FF48033EA
:1025AC0021F4407193FAA3F2B2FA82F22C4ED2B219
:1025BC00012746F8227093FAA3F3B3FA83F30022AF
:1025CC00DBB246F8232001626B68B3F5807F06D03E
:1025DC00236A23F440726B681343236224E0FEF7F2
:1025EC003BFD0646022393FAA3F2B2FA82F293FA67
:1025FC00A3F2B2FA82F242F04002C2F342129A42C1
:10260C000CBF226A626A93FAA3F3B3FA83F303F062
:10261C001F03DA40D207DBD4FEF71EFD41F28833EC
:10262C00801B9842DED9ADE72868830741BF0A4971
:10263C004B6823F44042AB6844BF13434B6010F02B
:10264C00100007D0044900204B6823F48002EB688B
:10265C0013434B6003B0F0BD00100240007000400B
:10266C000004424284B001A880E80E0004B00020AF
:10267C007047B0F840309BB243F43D43A0F8403073
:10268C0000207047B0F8403023F474535B045B0CAB
:10269C00A0F84030002070470020704784B010B57F
:1026AC0003AC84E80E00BDE810400123A0F84030D4
:1026BC000023A0F8403004B0A0F84430A0F850300B
:1026CC0018467047CB7830B50A78032B2BD8DFE847
:1026DC0003F0021F0C1530F822309BB223F4EC43AC
:1026EC0023F0700343F400731BE030F8223023F422
:1026FC00EC4323F070031B041B0C12E030F8223067
:10270C009BB223F4EC4323F0700343F4C06308E062
:10271C0030F822309BB223F4EC4323F0700343F4E3
:10272C00806320F822300C7830F8242044F40045E3
:10273C0022F0F0031B0545F080051B0D2B4320F800
:10274C0024308B7A0D78002B74D14A788B883AB36D
:10275C00B0F850205B0892B202EBC5045B0000EBB2
:10276C004404C4F800340A7830F822305B060BD5E8
:10277C0030F8223023F0F0031B051B0D43F400430B
:10278C0043F0C00320F822300A7830F8223023F4CA
:10279C00E04323F040031B041B0C83F02003FBE0FD
:1027AC00B0F850405B08A4B204EBC50404345B00E1
:1027BC0000F5806242F81430B0F850400B780D6987
:1027CC00A4B204EBC3043E2D04F106040BD9C5F3EB
:1027DC004F13ED0604BF03F1FF339BB26FEAC363E3
:1027EC006FEA534306E0C5F34F03ED0744BF0133D3
:1027FC009BB29B029BB242F814300A7830F822301C
:10280C005C040BD530F8223023F0F0031B051B0DB4
:10281C0043F4404343F0800320F822300A7830F828
:10282C00223023F4804323F070031B041B0C83F42D
:10283C004053B1E030F8253000F5806423F4F87390
:10284C001B051B0D43F4014343F0800320F8253096
:10285C00B0F850300A789BB203EBC203CA88520816
:10286C00520044F81320B0F850300A789BB203EBB6
:10287C00C2030A8904335208520044F813204B78DF
:10288C000A78002B46D130F822305B040BD530F897
:10289C00223023F0F0031B051B0D43F4404343F09F
:1028AC00800320F822300A7830F822305D060BD5F0
:1028BC0030F8223023F0F0031B051B0D43F40043CA
:1028CC0043F0C00320F822300A7830F8223023F08D
:1028DC00F0031B051B0D43F4004343F0C00320F829
:1028EC0022300A7830F8223023F4804323F070032E
:1028FC001B041B0C83F4405343F4004343F080034C
:10290C0020F822300A7830F8223023F0C0031B055F
:10291C001B0D41E030F822305C040BD530F822302E
:10292C0023F0F0031B051B0D43F4404343F08003DD
:10293C0020F822300A7830F822305B060BD530F8BC
:10294C00223023F0F0031B051B0D43F4004343F02E
:10295C00C00320F822300A7830F8223023F0F0033C
:10296C001B051B0D43F4404343F0800320F8223039
:10297C000A7830F8223023F0C0031B051B0D43F4FA
:10298C00004343F0800320F822300A7830F82230DC
:10299C0023F0F0039B049B0C43F4004343F08003AF
:1029AC0020F82230002030BD10B58C7A4A780B7894
:1029BC001CBB82B130F8232052065BD530F82320A3
:1029CC0022F0F0021205120D42F4004242F0C00255
:1029DC0020F823204EE030F82320540440F18D8061
:1029EC0030F8232022F0F0021205120D42F440427E
:1029FC0042F0800220F823207FE0002A42D130F8F8
:102A0C00232052040BD530F8232022F0F0021205BB
:102A1C00120D42F4404242F0800220F823200A7842
:102A2C0030F822305C060BD530F8223023F0F0035E
:102A3C001B051B0D43F4004343F0C00320F8223068
:102A4C000A7830F8223023F0F0031B051B0D43F4F9
:102A5C00004343F0C00320F822300A7830F82230CB
:102A6C0023F0F0039B049B0C43F4004343F08003DE
:102A7C0020F822300A7830F8223023F0C0031B05EE
:102A8C001B0D41E030F8232052040BD530F82320E5
:102A9C0022F0F0021205120D42F4404242F0800284
:102AAC0020F823200A7830F822305B060BD530F85A
:102ABC00223023F0F0031B051B0D43F4004343F0BD
:102ACC00C00320F822300A7830F8223023F0F003CB
:102ADC001B051B0D43F4404343F0800320F82230C8
:102AEC000A7830F8223023F0C0031B051B0D43F489
:102AFC00004343F0800320F822300A7830F822306B
:102B0C0023F0F0039B049B0C43F4004343F080033D
:102B1C0020F82230002010BD0A787AB903889BB2C5
:102B2C0023F4804323F0400383F4805383F0100399
:102B3C0043F4004343F0800303801CE04B7853B113
:102B4C0030F8223023F4E04323F040031B041B0C29
:102B5C0083F0100309E030F8223023F4804323F093
:102B6C0070031B041B0C83F4805343F4004343F0A9
:102B7C00800320F82230002070474B780A78DBB1B4
:102B8C0030F822305B060BD530F8223023F0F003FE
:102B9C001B051B0D43F4004343F0C00320F8223007
:102BAC000A7830F8223023F4E04323F040031B046E
:102BBC001B0C83F030031AE030F822305B040BD589
:102BCC0030F8223023F0F0031B051B0D43F4404377
:102BDC0043F0800320F822300A7830F8223023F4B6
:102BEC00804323F070031B041B0C83F4405343F409
:102BFC00004343F0800320F822300020704711B9C5
:102C0C008023A0F84C300020704700207047002033
:102C1C007047B0F8440080B2704700207047013311
:102C2C0000F5806030B55B1000EB420200249C4242
:102C3C0001F1020109D011F8015C11F8020C40EA13
:102C4C00052022F824000134F1E730BDF8B5054623
:102C5C0048780C4601288B690A698F7A57D11E4631
:102C6C00934283BF9E1A8E611646002398BF8B61D8
:102C7C00B3B27FB9A28828464969FFF7D0FFB5F8EF
:102C8C00503022789BB203EBC20305EB4303C3F82D
:102C9C00046430E0B5F85020097892B202EBC1021E
:102CAC0005EB4202C2F80C642278284635F8222043
:102CBC00616957064CBF2289E288FFF7B0FF637841
:102CCC00227853B935F8223023F0F0031B051B0D85
:102CDC0043F4004343F0C0030BE0012B0BD135F858
:102CEC00223023F0F0031B051B0D43F4404343F04B
:102CFC00800325F82230227835F8223023F4E04383
:102D0C0023F040031B041B0C83F0300336E093428A
:102D1C008BBF9B1A00228B618A6188BF134609788E
:102D2C0007B100BBB5F850203E2B92B202EBC101AB
:102D3C0005F5806001F106010BD9C3F34F12DE06D5
:102D4C0004BF02F1FF3292B26FEAC2626FEA5242E2
:102D5C0006E0C3F34F02DB0744BF013292B292028A
:102D6C0092B240F81120227835F8223023F48043B7
:102D7C0023F070031B041B0C83F4405343F40043F7
:102D8C0043F0800325F822300020F8BD013300F514
:102D9C00806010B55B1000EB420200249C4205D011
:102DAC0052F8240021F814000134F7E710BD00009C
:102DBC00002103E00B4B5B58435004310A480B4B8A
:102DCC0042189A42F6D30A4A02E0002342F8043B26
:102DDC00084B9A42F9D300F011F800F03BF8FDF7DC
:102DEC007FFA7047F4370008000000209409002097
:102DFC0094090020F0160020FEE700000F4B1A6823
:102E0C0042F001021A6059680D4A0A405A601A6869
:102E1C0022F0847222F480321A601A6822F4802222
:102E2C001A605A6822F4FE025A604FF41F029A602C
:102E3C00044B4FF000629A60704700BF00100240D4
:102E4C000000FFF800ED00E0014B1868704700BF70
:102E5C008005002070B50F4E0F4D761BB61018BFB5
:102E6C00002405D0013455F8043B9847A642F9D10B
:102E7C000A4E0B4D00F060FC761BB61018BF0024F8
:102E8C0006D0013455F8043B9847A642F9D170BDE1
:102E9C0070BD00BFE8370008E8370008F0370008BD
:102EAC00E8370008024B0146186800F00BB800BF69
:102EBC0080050020024B0146186800F013BB00BFD0
:102ECC00800500202DE9F04F01F10B05162D83B084
:102EDC00064627D935F0070500F1B680A94200F265
:102EEC00B38000F075FAB5F5FC7F22D2BC4FE80830
:102EFC0007EBC003DC689C4200F0BC816368E168AE
:102F0C0023F0030323445A68A56842F00102E960E8
:102F1C0030468D605A6000F05DFA0834204603B0EC
:102F2C00BDE8F08F102900F28F8000F051FA1025C7
:102F3C00DCE7680A00F08F80042800F24781A809BA
:102F4C0038304100A64F07EB8101CC68A14206D175
:102F5C000CE0002A80F28280E468A14206D063680B
:102F6C0023F003035A1B0F2AF3DD013801309C496F
:102F7C003C6901F1080E744500F07181636823F01F
:102F8C0003035A1B0F2A00F35781002AC1F814E0DF
:102F9C00C1F810E066DAB3F5007F80F02D81DB0814
:102FAC0001EBC3084FEAA30C4A68012303FA0CF3A4
:102FBC00D8F808C01343C4F808C0C4F80C804B60A0
:102FCC00C8F80840CCF80C408210012494409C4274
:102FDC0055D8234206D120F003006400234200F1AF
:102FEC000400FAD007EBC008C4468146DCF80C306C
:102FFC009C4507D135E1002980F24581DB689C4571
:10300C0000F02F815A6822F00302511B0F29F2DDC8
:10301C001C46DA6854F808CF45F0010941F0010864
:10302C001D44C3F804903046CCF80C20C2F808C0FC
:10303C007D613D61C5F80CE0C5F808E0C5F8048079
:10304C00695000F0C7F969E7002420460C2333606F
:10305C0003B0BDE8F08F7E213F2073E723445A680C
:10306C00E16851E723445A68304642F001025A6045
:10307C00083400F0AFF9204603B0BDE8F08FBC680F
:10308C00636823F00308454504D8C5EB08030F2BF0
:10309C0000F38C80534BDFF85CA11A68DAF800302F
:1030AC002A44013304EB080B00F0518102F58052E5
:1030BC000F3222F47F6222F00F0211463046019249
:1030CC0000F08AF9B0F1FF3F8146019A00F0488187
:1030DC00834500F2EF80444BCB45196811441960CD
:1030EC0000F04381DAF80000DFF808E101301BBF83
:1030FC00CBEB090B5944CEF80090196019F007017D
:10310C0000F00881C1F10800C1F5805181440831FB
:10311C004A44C2F30B02C2EB010A514630460193FA
:10312C0000F05AF9431C019B00F02D81C9EB000201
:10313C00524442F001021968BC425144C7F808904D
:10314C001960C9F80420DFF8A0A016D0B8F10F0F51
:10315C0040F2EF806268A8F10C0323F0070302F041
:10316C000102E0184FF0050E1A430F2B6260C0F8F5
:10317C0004E0C0F808E000F20A811C4BBC681A6835
:10318C00914288BF19601A4B1A689142626888BFD5
:10319C00196022F003029542A2EB050301D80F2B14
:1031AC0004DC304600F016F90024B7E645F00102C5
:1031BC0043F00103254462603046BD6008346B6007
:1031CC0000F008F9204603B0BDE8F08F142869D947
:1031DC00542800F29880280B6E304100B2E600BFF4
:1031EC0084050020EC0D0020F00D0020E80D0020DF
:1031FC00E40D0020900900205A0A042A55D9142AFB
:10320C0000F2A7805B324FEA420C07EB8C0CDCF827
:10321C000810DFF8B88161457FD04A6822F00302BC
:10322C00934202D289688C45F7D1CA687B68E26008
:10323C00A1609460CC60C7E645F0010742F0010341
:10324C002544676030464D610D61C5F80CE0C5F84A
:10325C0008E06B60AA50083400F0BCF85EE64B68DE
:10326C00B2E609F1010919F0030F0CF1080C7FF417
:10327C00BDAE2CE004F108036469A34208BF023020
:10328C003FF475AE3AE61C461A445168DB6854F8B4
:10329C00085F41F0010151603046EB609D6000F029
:1032AC0099F83BE65B3041004CE69A0938324FEA1C
:1032BC00420CAAE7BC42454B3FF40DAF9C686268D8
:1032CC0022F0030267E7D8F8008098457CD110F013
:1032DC00030FA8F1080300F1FF30F4D17B6823EA57
:1032EC0004037B6064009C423FF6C9AE002C3FF4A3
:1032FC00C6AE234248467FF475AE6400234200F10B
:10330C000400FAD06EE6B0F5AA7F18D8E80B773037
:10331C00410017E64FF48051FAE6D8F804309210C9
:10332C004FF0010C0CFA02F21343C8F804300A46B1
:10333C007DE70123C9F804304C4600222BE740F20C
:10334C00545398421CD8A80C7C304100FAE510323A
:10335C00B3E6542A23D81A0B6E324FEA420C54E7C8
:10336C00BC68626822F0030215E7CBF30B0000285F
:10337C007FF4B8AE4244BB6842F001025A60FCE6EE
:10338C00FC217E20DEE501224FF0000AD3E604F199
:10339C000801304600F0A6F8DAF80010EDE6B2F5B8
:1033AC00AA7F04D8DA0B77324FEA420C2DE740F2B1
:1033BC0054518A4204D89A0C7C324FEA420C24E7CE
:1033CC004FF0FC0C7E2220E77B688BE78405002005
:1033DC00704700BF704700BF38B5074C0023054647
:1033EC0008462360FCF730FF431C00D038BD23682F
:1033FC00002BFBD02B6038BDEC160020024B13B118
:10340C00024800F005B8704700000000293400089D
:10341C00014600200246034600F03CB938B5084B83
:10342C00084DED1AAC1018BFED1805D0013C55F83D
:10343C00043D9847002CF9D1BDE8384000F082B922
:10344C00F0370008F4370008F8B50C46224F064652
:10345C00FFF7BEFFBB685D6825F00305291B01F66D
:10346C00EF7121F47F6121F00F01A1F58054B4F5C7
:10347C00805F07DB30460021FFF7AEFFBB682B44B3
:10348C00984204D03046FFF7A5FF0020F8BD304627
:10349C006142FFF7A1FF01300DD0104BBA681968DB
:1034AC002D1B45F001053046091B55601960FFF7CF
:1034BC0091FF0120F8BD30460021FFF78DFFBA685F
:1034CC00831A0F2BDEDD064C0449246843F00103FC
:1034DC00001B53600860D5E784050020F00D002028
:1034EC009009002000294ED02DE9F0410C46804671
:1034FC00FFF76EFF54F8047C6249A4F1080527F02D
:10350C000102AB188E6858689E4220F003005AD016
:10351C00FE0758600BD454F8087C01F1080EED1B23
:10352C00AC683A44744567D0EF68E760BC601C181F
:10353C006468E4070CD4544F9C680244BC427CD0B1
:10354C00D86842F00103E06084606B60AA5003E02D
:10355C0042F001036B60AA50B2F5007F14D2D2087E
:10356C0001EBC20301244868921004FA02F29C6831
:10357C001043AC60EB6048609D60E5604046BDE880
:10358C00F041FFF727BF7047530A042B47D8930924
:10359C0003F13804600001EB8000836839498342F1
:1035AC0043D0596821F00301914202D99B6898429B
:1035BC00F7D1DA68EA60AB6040469560DD60BDE843
:1035CC00F041FFF707BFFF07024407D454F8084C3B
:1035DC002D1BEB68A8682244C36098602B4B42F00B
:1035EC0001001B6868609A428D60C7D3284B404627
:1035FC001968FFF729FFC1E719184968C90709D4E9
:10360C00D96802449B6842F00100D9608B60686005
:10361C00AA50B3E742F001036B60AA50AEE7142B3B
:10362C0014D803F15B046000B5E74A68A4100120CC
:10363C00A04002434A601A46BCE742F001034D61C8
:10364C000D61EC60AC606B60AA5097E7542B04D80A
:10365C00130B03F16E0460009DE7B3F5AA7F04D849
:10366C00D30B03F17704600095E740F2545083428A
:10367C0004D8930C03F17C0460008CE7FC207E24BE
:10368C0089E700BF840500208C0500208C090020F0
:10369C00EC0D00202DE9F047254C064625688846A0
:1036AC00D5F8484192469946C4B360681F2817DC88
:1036BC00411C76B104EB8003C3F888A0D4F8885180
:1036CC00012282401543022EC4F88851C3F8089198
:1036DC001ED0831C6160002044F82380BDE8F08775
:1036EC00144B03B34FF4C870FFF7DCFB0446D0B1A6
:1036FC00D5F84831002784E888003846C5F8484199
:10370C000121C4F88871C4F88C71002EE1D0D1E786
:10371C00D4F88C311A43C4F88C21DAE705F5A67479
:10372C00C5F84841C1E74FF0FF30BDE8F08700BF56
:10373C00E4370008B12E0008F8B500BFF8BC08BC8F
:10374C009E467047F8B500BFF8BC08BC9E46704753
:10375C0002030405060708090A0B0C0D0E0F1010C6
:10376C0001020D0A596F7520747970656420000D83
:10377C000A0053544D6963726F656C656374726FA4
:10378C006E6963730053544D3332205669727475ED
:10379C00616C20436F6D506F72740030303030307C
:1037AC00303030303031410043444320436F6E663B
:1037BC0069670043444320496E74657266616365B2
:1037CC0000000000000102030401020304060708C4
:0C37DC000900000043000000580100201C
:0837E80009340008310100085A
:0437F0000D010008BF
:1037F4004D040008290400082D04000831040008C1
:1038040015070008210700082D07000849070008CC
:1038140065070008810700089D07000804030904E0
:10382400120100020000004083044057000201021C
:103834000301000009024300020100C03209040030
:103844000001020201000524001001052401000109
:10385400042402020524060001070582030800105F
:1038640009040100020A00000007050102400000EB
:103874000705810240000000070F0008CD0E000874
:10388400730E000800000000EB0D0008D90D0008BD
:10389400450E0008000000000000000000000000C9
:1038A400210E0008150E00082D0E0008390E000820
:1038B4000A0600020000004001000000090743005E
:1038C400020104C0320904000001020201000524BF
:1038D400001001052401000104240202052406004D
:1038E40001070582030800FF09040100020A000021
:1038F40000070501024000000705810240000000A6
:1039040009024300020100C032090400000102025E
:103914000100052400100105240100010424020211
:1039240005240600010705820308001009040100AC
:10393400020A0000000705010200020007058102D7
:103944000002000000A24A04000000004404002019
:10395400AC0400201405002000000000000000005A
:103964000000000000000000000000000000000053
:10397400000000000000000000000000E037000824
:103984000000000000000000000000000000000033
:103994000000000000000000000000000000000023
:1039A4000000000000000000000000000000000013
:1039B4000000000000000000000000000000000003
:1039C40000000000000000000000000000000000F3
:1039D40000000000000000000000000000000000E3
:1039E40000000000000000000000000000000000D3
:1039F40001000000000000000E33CDAB34126DE670
:103A0400ECDE05000B0000000000000000000000D8
:103A140000000000000000000000000000000000A2
:103A24000000000000000000000000000000000092
:103A34000000000000000000000000000000000082
:103A44000000000000000000000000000000000072
:103D7400580100200000000000000000840500201D
:103D8400840500208C0500208C050020940500206B
:103D9400940500209C0500209C050020A40500201B
:103DA400A4050020AC050020AC050020B4050020CB
:103DB400B4050020BC050020BC050020C40500207B
:103DC400C4050020CC050020CC050020D40500202B
:103DD400D4050020DC050020DC050020E4050020DB
:103DE400E4050020EC050020EC050020F40500208B
:103DF400F4050020FC050020FC050020040600203A
:103E0400040600200C0600200C06002014060020E6
:103E1400140600201C0600201C0600202406002096
:103E2400240600202C0600202C0600203406002046
:103E3400340600203C0600203C06002044060020F6
:103E4400440600204C0600204C06002054060020A6
:103E5400540600205C0600205C0600206406002056
:103E6400640600206C0600206C0600207406002006
:103E7400740600207C0600207C06002084060020B6
:103E8400840600208C0600208C0600209406002066
:103E9400940600209C0600209C060020A406002016
:103EA400A4060020AC060020AC060020B4060020C6
:103EB400B4060020BC060020BC060020C406002076
:103EC400C4060020CC060020CC060020D406002026
:103ED400D4060020DC060020DC060020E4060020D6
:103EE400E4060020EC060020EC060020F406002086
:103EF400F4060020FC060020FC0600200407002035
:103F0400040700200C0700200C07002014070020E1
:103F1400140700201C0700201C0700202407002091
:103F2400240700202C0700202C0700203407002041
:103F3400340700203C0700203C07002044070020F1
:103F4400440700204C0700204C07002054070020A1
:103F5400540700205C0700205C0700206407002051
:103F6400640700206C0700206C0700207407002001
:103F7400740700207C0700207C07002084070020B1
:103F8400840700208C0700208C0700209407002061
:103F9400940700209C0700209C070020A407002011
:103FA400A4070020AC070020AC070020B4070020C1
:103FB400B4070020BC070020BC070020C407002071
:103FC400C4070020CC070020CC070020D407002021
:103FD400D4070020DC070020DC070020E4070020D1
:103FE400E4070020EC070020EC070020F407002081
:103FF400F4070020FC070020FC0700200408002030
:10400400040800200C0800200C08002014080020DC
:10401400140800201C0800201C080020240800208C
:10402400240800202C0800202C080020340800203C
:10403400340800203C0800203C08002044080020EC
:10404400440800204C0800204C080020540800209C
:10405400540800205C0800205C080020640800204C
:10406400640800206C0800206C08002074080020FC
:10407400740800207C0800207C08002084080020AC
:10408400840800208C0800208C080020940800205C
:10409400940800209C0800209C080020A40800200C
:1040A400A4080020AC080020AC080020B4080020BC
:1040B400B4080020BC080020BC080020C40800206C
:1040C400C4080020CC080020CC080020D40800201C
:1040D400D4080020DC080020DC080020E4080020CC
:1040E400E4080020EC080020EC080020F40800207C
:1040F400F4080020FC080020FC080020040900202B
:10410400040900200C0900200C09002014090020D7
:10411400140900201C0900201C0900202409002087
:10412400240900202C0900202C0900203409002037
:10413400340900203C0900203C09002044090020E7
:10414400440900204C0900204C0900205409002097
:10415400540900205C0900205C0900206409002047
:10416400640900206C0900206C09002074090020F7
:10417400740900207C0900207C0900200000020052
:04418400FFFFFFFF3B
:0400000508002DBD05
:00000001FF
